:020000040000fa
:080000000002040000000000f2
:020000040000fa
:0400080050040000a0
:020000040000fa
:04000c006a03000083
:020000040000fa
:04001000ac0300003d
:020000040000fa
:040014008a0300005b
:020000040000fa
:04001800cc03000015
:020000040000fa
:04001c00500400008c
:020000040000fa
:040020005004000088
:020000040000fa
:040024005004000084
:020000040000fa
:040028005004000080
:020000040000fa
:04002c00500400007c
:020000040000fa
:040030005004000078
:020000040000fa
:040034005004000074
:020000040000fa
:040038005004000070
:020000040000fa
:04003c00500400006c
:020000040000fa
:040040005004000068
:020000040000fa
:040044005004000064
:020000040000fa
:040048001a04000096
:020000040000fa
:04004c00500400005c
:020000040000fa
:040050005004000058
:020000040000fa
:04005400fa020000ac
:020000040000fa
:04005800dc020000c6
:020000040000fa
:04005c00500400004c
:020000040000fa
:040060005004000048
:020000040000fa
:040064005004000044
:020000040000fa
:040068005004000040
:020000040000fa
:04006c00500400003c
:020000040000fa
:040070005004000038
:020000040000fa
:04007400ec03000099
:020000040000fa
:040078002e03000053
:020000040000fa
:04007c00500400002c
:020000040000fa
:040080005004000028
:020000040000fa
:040084005004000024
:020000040000fa
:040088005004000020
:020000040000fa
:04008c00500400001c
:020000040000fa
:040090005004000018
:020000040000fa
:040094005004000014
:020000040000fa
:040098005004000010
:020000040000fa
:04009c004c03000011
:020000040000fa
:0400a0005004000008
:020000040000fa
:0400a4005004000004
:020000040000fa
:0400a8005004000000
:020000040000fa
:0400ac0050040000fc
:020000040000fa
:0400b00050040000f8
:020000040000fa
:0400b40050040000f4
:020000040000fa
:0400b80050040000f0
:020000040000fa
:0400bc0050040000ec
:020000040000fa
:0400c00050040000e8
:020000040000fa
:0400c40050040000e4
:020000040000fa
:0400c80050040000e0
:020000040000fa
:0400cc0050040000dc
:020000040000fa
:0400d00050040000d8
:020000040000fa
:0400d40050040000d4
:020000040000fa
:0400d80050040000d0
:020000040000fa
:0400dc0050040000cc
:020000040000fa
:0400e00050040000c8
:020000040000fa
:0400e40050040000c4
:020000040000fa
:0400e80050040000c0
:020000040000fa
:0400ec0050040000bc
:020000040000fa
:0400f00050040000b8
:020000040000fa
:0400f40050040000b4
:020000040000fa
:0400f80050040000b0
:020000040000fa
:0400fc0050040000ac
:020000040000fa
:0401000050040000a7
:020000040000fa
:0401040050040000a3
:020000040000fa
:04010800500400009f
:020000040000fa
:04010c00500400009b
:020000040000fa
:040110005004000097
:020000040000fa
:040114005004000093
:020000040000fa
:04011800500400008f
:020000040000fa
:04011c00500400008b
:020000040000fa
:040120005004000087
:020000040000fa
:040124005004000083
:020000040000fa
:04012800500400007f
:020000040000fa
:04012c0018030000b4
:020000040000fa
:040130005004000077
:020000040000fa
:040134005004000073
:020000040000fa
:04013800500400006f
:020000040000fa
:04013c00500400006b
:020000040000fa
:040140005004000067
:020000040000fa
:040144005004000063
:020000040000fa
:04014800500400005f
:020000040000fa
:04014c00500400005b
:020000040000fa
:040150005004000057
:020000040000fa
:040154005004000053
:020000040000fa
:04015800500400004f
:020000040000fa
:04015c00500400004b
:020000040000fa
:040160005004000047
:020000040000fa
:040164005004000043
:020000040000fa
:04016800500400003f
:020000040000fa
:04016c00500400003b
:020000040000fa
:040170005004000037
:020000040000fa
:040174005004000033
:020000040000fa
:04017800500400002f
:020000040000fa
:04017c00500400002b
:020000040000fa
:040180005004000027
:020000040000fa
:040184005004000023
:020000040000fa
:04018800500400001f
:020000040000fa
:04018c00500400001b
:020000040000fa
:040190005004000017
:020000040000fa
:040194005004000013
:020000040000fa
:04019800500400000f
:020000040000fa
:04019c00500400000b
:020000040000fa
:04020800500400009e
:020000040000fa
:04020c006a03000081
:020000040000fa
:04021000ac0300003b
:020000040000fa
:040214008a03000059
:020000040000fa
:04021800cc03000013
:020000040000fa
:04021c00500400008a
:020000040000fa
:040220005004000086
:020000040000fa
:040224005004000082
:020000040000fa
:04022800500400007e
:020000040000fa
:04022c00500400007a
:020000040000fa
:040230005004000076
:020000040000fa
:040234005004000072
:020000040000fa
:04023800500400006e
:020000040000fa
:04023c00500400006a
:020000040000fa
:040240005004000066
:020000040000fa
:040244005004000062
:020000040000fa
:040248001a04000094
:020000040000fa
:04024c00500400005a
:020000040000fa
:040250005004000056
:020000040000fa
:04025400fa020000aa
:020000040000fa
:04025800dc020000c4
:020000040000fa
:04025c00500400004a
:020000040000fa
:040260005004000046
:020000040000fa
:040264005004000042
:020000040000fa
:04026800500400003e
:020000040000fa
:04026c00500400003a
:020000040000fa
:040270005004000036
:020000040000fa
:04027400ec03000097
:020000040000fa
:040278002e03000051
:020000040000fa
:04027c00500400002a
:020000040000fa
:040280005004000026
:020000040000fa
:040284005004000022
:020000040000fa
:04028800500400001e
:020000040000fa
:04028c00500400001a
:020000040000fa
:040290005004000016
:020000040000fa
:040294005004000012
:020000040000fa
:04029800500400000e
:020000040000fa
:04029c004c0300000f
:020000040000fa
:0402a0005004000006
:020000040000fa
:0402a4005004000002
:020000040000fa
:0402a80050040000fe
:020000040000fa
:0402ac0050040000fa
:020000040000fa
:0402b00050040000f6
:020000040000fa
:0402b40050040000f2
:020000040000fa
:0402b80050040000ee
:020000040000fa
:0402bc0050040000ea
:020000040000fa
:0402c00050040000e6
:020000040000fa
:0402c40050040000e2
:020000040000fa
:0402c80050040000de
:020000040000fa
:0402cc0050040000da
:020000040000fa
:0402d00050040000d6
:020000040000fa
:0402d40050040000d2
:020000040000fa
:0402d80050040000ce
:020000040000fa
:0402dc0050040000ca
:020000040000fa
:0402e00050040000c6
:020000040000fa
:0402e40050040000c2
:020000040000fa
:0402e80050040000be
:020000040000fa
:0402ec0050040000ba
:020000040000fa
:0402f00050040000b6
:020000040000fa
:0402f40050040000b2
:020000040000fa
:0402f80050040000ae
:020000040000fa
:0402fc0050040000aa
:020000040000fa
:0403000050040000a5
:020000040000fa
:0403040050040000a1
:020000040000fa
:04030800500400009d
:020000040000fa
:04030c005004000099
:020000040000fa
:040310005004000095
:020000040000fa
:040314005004000091
:020000040000fa
:04031800500400008d
:020000040000fa
:04031c005004000089
:020000040000fa
:040320005004000085
:020000040000fa
:040324005004000081
:020000040000fa
:04032800500400007d
:020000040000fa
:04032c0018030000b2
:020000040000fa
:040330005004000075
:020000040000fa
:040334005004000071
:020000040000fa
:04033800500400006d
:020000040000fa
:04033c005004000069
:020000040000fa
:040340005004000065
:020000040000fa
:040344005004000061
:020000040000fa
:04034800500400005d
:020000040000fa
:04034c005004000059
:020000040000fa
:040350005004000055
:020000040000fa
:040354005004000051
:020000040000fa
:04035800500400004d
:020000040000fa
:04035c005004000049
:020000040000fa
:040360005004000045
:020000040000fa
:040364005004000041
:020000040000fa
:04036800500400003d
:020000040000fa
:04036c005004000039
:020000040000fa
:040370005004000035
:020000040000fa
:040374005004000031
:020000040000fa
:04037800500400002d
:020000040000fa
:04037c005004000029
:020000040000fa
:040380005004000025
:020000040000fa
:040384005004000021
:020000040000fa
:04038800500400001d
:020000040000fa
:04038c005004000019
:020000040000fa
:040390005004000015
:020000040000fa
:040394005004000011
:020000040000fa
:04039800500400000d
:020000040000fa
:04039c005004000009
:020000040000fa
:10040000cfca20000e7f24000e01880000000000eb
:10041000000020000000e000020032000001200087
:1004200020028800140007001f0107000000e00000
:1004300003003a00c02b2400010020000200370016
:100440000000200001002000810f70000100320038
:1004500014000700000020000000e000020032004d
:1004600000000200000000000a530200000000002b
:100470000040da000000fe004440a900409920003e
:100480000000e0000300320000002000a00188000e
:100490004440a800000006008a1f78008b1f7800e7
:1004a0000000060091018800800478000000eb0045
:1004b0001a003700e284440032a0b4009905ba0063
:1004c000e284440032a0b4009906ba00e2844400f9
:1004d00032a0b4000006eb00476fde00fd07b2005b
:1004e000636ce10003003a00ebff07000000eb0043
:1004f0000a003700606ce10004003a00005deb0088
:100500008b05e900fdff3e00040037006168e10053
:10051000010032000086eb000b00070019c7ba008b
:100520001905ba000e04e00003003a000a00e000da
:10053000e0ff3a0000000600fe07b2009e018800be
:100540008a047800f5ff3700395dba008b05e900b1
:100550000c003200295dba008b05e900080032006a
:100560000c00e00003003a00e284440032a0b40032
:10057000f5ff370019ddba008b05e900faff3a00f4
:100580008904e800e184440032a0b40000000600c1
:10059000000000000000000000000000000000005b
:1005a000000000000000000000000000000000004b
:1005b00000000000000000003600f800809fbe0030
:1005c000829fbe00849fbe00869fbe000000fa008e
:1005d000b0448000000001000080fa004f03be001c
:1005e0004f02be004f01be004f00be003600f900b2
:1005f000004006003600f800809fbe00829fbe00cb
:10060000849fbe00869fbe000000fa000c10070009
:100610008560a9000080fa004f03be004f02be00b3
:100620004f01be004f00be003600f900004006003a
:10063000801f78000000fa00101180006200600046
:100640000000e000010032002222a9008c20a90055
:100650000080fa004f007800004006003600f800e5
:10066000809fbe00829fbe00849fbe00869fbe000a
:100670000000fa00ae2707008680a9000080fa007b
:100680004f03be004f02be004f01be004f00be0030
:100690003600f900004006003600f800809fbe00da
:1006a000829fbe00849fbe00869fbe000000fa00ad
:1006b000a427070087a0a9000080fa004f03be000e
:1006c0004f02be004f01be004f00be003600f900d1
:1006d000004006003600f800809fbe00829fbe00ea
:1006e000849fbe00869fbe000000fa008020a90003
:1006f0000000eb00bb2707000080fa004f03be009c
:100700004f02be004f01be004f00be003600f90090
:10071000004006003600f800809fbe00829fbe00a9
:10072000849fbe00869fbe000000fa00b22707002b
:100730008040a90010002000aa2707000080fa00ce
:100740004f03be004f02be004f01be004f00be006f
:100750003600f900004006003600f800809fbe0019
:10076000829fbe00849fbe00869fbe000000fa00ec
:100770008060a900200020009a2707000080fa006e
:100780004f03be004f02be004f01be004f00be002f
:100790003600f900004006003600f800809fbe00d9
:1007a000829fbe00849fbe00869fbe000000fa00ac
:1007b0008080a900300020008a2707000080fa000e
:1007c0004f03be004f02be004f01be004f00be00ef
:1007d0003600f900004006003600f800809fbe0099
:1007e000829fbe00849fbe00869fbe000000fa006c
:1007f00030048000680060000000e0000600320065
:10080000604580000000e00002003200604580008a
:10081000000001008660a9000080fa004f03be00be
:100820004f02be004f01be004f00be003600f9006f
:10083000004006003600f800809fbe00829fbe0088
:10084000849fbe00869fbe000000fa0070458000b5
:100850000000e0000200320070458000000001004e
:1008600090ca2000104078008040e80090ca200024
:100870000148780080ca200011c0b3000148780008
:100880008500a9000080fa004f03be004f02be00a1
:100890004f01be004f00be003600f90000400600c8
:1008a0000040da000000fe00000005000001be006c
:1008b000220007000470a70003f0a1006509b10041
:1008c000160032000d0035006828e10006003500f2
:1008d000f0ff2f00f1ff27000300e00013003b00b2
:1008e0000100280000000500000040008180480051
:1008f0008502e900fcff3a0008003700f88f42004b
:1009000002003c008000eb00000005008100d100e7
:100910000080d3008502e800fcff3a000300e000fd
:1009200002003b0060001000e0801800000006009c
:100930004f89de0082017800b5023700c70ade0069
:10094000f107b200f50fb20008003200e1cf42001b
:10095000020032000170a00024000500810f700029
:10096000010032000408050044000500810f7000fa
:1009700002003a00140005008502e9000000400072
:1009800081c04800fcff3b000170a000240005006e
:1009900007f82700078361000638e10004003a00e9
:1009a000f7072000878361008703710001003a0088
:1009b00003f0a200889fbe008a9fbe008c9fbe00ed
:1009c000470ade000480a100c71ade000580a100ee
:1009d000070028000785600087856100f70f200069
:1009e0000720e1009e0032000728e1009c00320051
:1009f000010678000400e000b4003200f707200090
:100a0000878060000170a0000500e000c000320097
:100a1000f7072000878161000370a00005065200df
:100a20000f003a000b50e1000b0032000308e10018
:100a300002003a000200e1007e0032000204500091
:100a400083845800040031000001fd008101fd0095
:100a50008402fd008a05fd006044b80021003700d3
:100a60000520e10005003d000001fd008101fd00c1
:100a70008402fd008a05fd00050652007a60e1004f
:100a8000050035000170a1004722dd008480700060
:100a90008a807000630037006044b800ef0266008f
:100aa00007ff2f00070666000500e000060034007f
:100ab000f08312008714dd000511de00071bdd0046
:100ac000060171008519de007060e1000500350047
:100ad0000904780082047800030178008001eb00ab
:100ae000700656000b50e10003003a00020040007f
:100af000838048000400370060041400e0841c0078
:100b000002005800838058000188a30006003200cc
:100b10008100d1000080d3008984d3000884d300f1
:100b20000402e800270037000178a30025003a00fe
:100b30000100e000030032008186cf006986560084
:100b40000a0037008c0020000000e00004003a009a
:100b500009007800880478000004eb00700252005d
:100b60008086cf000d0646000c06e9007060e100ab
:100b700006003500800078000900780088047800bd
:100b80000004eb0070065600700252000c00e000fa
:100b90000c0034008c08dd00f00316000703de00b3
:100ba000868070000c00dd00074bde000600700040
:100bb0008c4cdd000743de00868474000c44dd00ad
:100bc0000c0252006120e10020003500610160004c
:100bd0000700280087816400f7ff270087836400ef
:100be000070374000300e000060032008203730074
:100bf000040032000000e800e08048000188a30003
:100c00000e003a00f70f20000720e1004a003d00e7
:100c10000170a1004722dd00810072008a8070000f
:100c20000000be004f06be004f05be004f04be00d0
:100c3000000006006000b800faff37008100d10014
:100c40000080d3000402e800eeff370004017800c2
:100c5000890174001b0107008a807000f1ff3700d2
:100c600042010700070278000001fd008101fd003c
:100c70003e01070087027800850372000778a30011
:100c8000040032000001fd008101fd005101070058
:100c9000e4ff3700850362000768a3000800320004
:100ca0000b50e10003003200f0ff2f00f1ff27009e
:100cb000dcff37000001fd008101fd00d9ff370096
:100cc0000468a300d7ff3200faff3700f8ff2700bf
:100cd000888360000b003a000000e00009003a0041
:100ce0008303640082837300020032000200be00ae
:100cf000ccff37000b50e100ceff3a000200be00ef
:100d0000c8ff370014002000810064003eff370058
:100d1000f8ff27008883610004003a000200e00029
:100d200002003a008c007800beff3700150020005a
:100d30008301640039ff370001f82700000020001c
:100d400081007500b7ff3700889fbe008a9fbe00f4
:100d50008c9fbe001b0020000202be0005866800ba
:100d600006002800060666004709de00f20fb20002
:100d7000820032000243e80080003200c729de0012
:100d8000f30fb2007d0032000343e8007b00320025
:100d9000f107b2000170a000f507b2000570a000d5
:100da000c708dd004903de00868070004700dd00d3
:100db000c72add004923de00868272004722dd005b
:100dc00003055100040350008583580003003100df
:100dd00000004000818048000a05e9008c1f78006f
:100de0008a9fbe0004005000858058000402420023
:100df00085824a0000004000818048000005eb0029
:100e00000004be006033b8000406be000d48e100d7
:100e100056003100110009004dccd8000c01b8007b
:100e20000d02b8008481410060824a008283530031
:100e300003045c0084845c0060055d000a00e0003f
:100e400025003a00800578000d40e100490031009e
:100e50008800780007007800110009004d88d8004c
:100e60000c01b8000d02b8008481410060824a0084
:100e70006003110083835b0004045c00e0845c0079
:100e80000900e00021003a004f01be000300e0002d
:100e90002b003200e3016000070673008c817100b3
:100ea00001003200640070004200de004e5edd0092
:100eb0000c007000c258de0001e0a000ce00070068
:100ec000cf017800818071004f06be004f05be0043
:100ed0004f04be00000006008c8343000d044c004c
:100ee000e0844c0060054d000000e9000a00e000cd
:100ef000d4ff32008c8343000d044c00e0844c008e
:100f000060054d000000e900ceff37000c034300f0
:100f10008d834b0060044c00e0844c000000e9002d
:100f20000900e000d8ff32000c0343008d834b0022
:100f300060044c00e0844c000000e900d2ff370060
:100f40004200de004e5edd000c007000c258de0084
:100f500001e0a000cf0178000300e000daff3200da
:100f600060001000e0801800d7ff3700f0ff2f006e
:100f7000aaff3700f0ff2f00b9ff37000404be00be
:100f80007a000700870678000004fd008104fd0058
:100f900076000700078366000678a300030032008e
:100fa0000960a7000800be002c0037000d78a300e0
:100fb000020032000800be00280037000778a300b6
:100fc00026003a0001f0a10009f0a1000668a30084
:100fd00003003200f1ff2700f0ff2f00baff3700b7
:100fe0000d68a300030032000800be008c80700072
:100ff000b5ff37000768a30007003a000648a300c2
:1010000003003200f1ff2700f0ff2f00aeff370092
:101010000d48a300030032006000b8008c8070000f
:10102000a9ff37000748a3000400320001f8270099
:10103000000020008c807000a3ff3700c100070073
:101040000004fd008104fd0002057800bd000700da
:101050000802be008a01780059ff37000160a00035
:1010600012022000a245880097ff37000100e0002f
:10107000120032000500e00010003200889fbe0020
:101080008a9fbe008c9fbe000006eb0001f8a30003
:101090000300320060001000e08018000cf0a00097
:1010a00005f8a3000300320060021200e0821a007b
:1010b0000cf0a2008005eb0041ff37006000b80093
:1010c000020005000100e00026003200610111006d
:1010d0007810e10023003c006022b8007010e100ad
:1010e0000400350080027800010078008000eb00e9
:1010f000700151000200e00009003400700311008b
:10110000062add00822ade008603dd008782720067
:101110000200de00860bdd00070070008208de00a2
:1011200084817100f4ff27000482620084817100d1
:1011300004002800848262006102600005f0a600bd
:101140000000060004827100070032000000e80081
:10115000e0804800000006000002be006000b80009
:10116000efff37006000b8000000060027002000f5
:1011700001f0a70017002000470bde00f60fb200b9
:10118000040032000643e8000a0032004702b300c0
:101190000000060001037800f607b20006037000a5
:1011a00002003a000703b300000006008702b30004
:1011b0000000060001037800f607b2000603700085
:1011c000020032000770a000000006000760a000c7
:1011d000000006000478a300040032000578a30094
:1011e000030032000168a30001003a000200be00c3
:1011f0000160a0000000060081017000270032009d
:101200008002eb0001f8a300030032006000100030
:10121000e080180015002000f407200002024200c0
:1012200020003400f703200087036000060420003c
:101230000003630002082000000161004700de0097
:10124000c909dd0000807100c708de000600e0006b
:101250000800320087037100060032001000b00061
:101260000180b0000188a30002003200c108de0046
:101270000402e800f107b200f30f20000320e100b0
:1012800003003d004722dd00810072002900370085
:1012900001f827000000eb00260037006000b800ce
:1012a00000000600680212007f20e1000200340006
:1012b0006000b8001f0037006011b8007020e10026
:1012c0000400350080017800010078008000eb0008
:1012d000700252000400e00009003400f003120024
:1012e0000719dd008419de000703dd008681710027
:1012f0000400de00070bdd00060070008408de003d
:10130000f7ff27008383630087037100060028002e
:1013100003036300070032000700e00003003a0007
:101320006101600002817300020032001000b00011
:101330000180b0000500a6000000060001f0a0003a
:10134000000006004f0ade004709de00f107b20088
:10135000f20fb2000b003200f207b1000170a000e2
:10136000c708dd00c901de00838070004700dd0092
:101370000400a6000000060060001000e0801800d5
:1013800000000600810f700001003a000000060016
:101390008182cf000500e00010003e008082cf0077
:1013a000ee8242007028e1000400390007003e0090
:1013b000800078000000eb000e0037007083120000
:1013c0008600de000500dd000a0037007083520051
:1013d0008600dd000000eb0006003700e2825200cc
:1013e0008508dd00708312000603de008680700031
:1013f0000500dd007507b0000501ea000400a60045
:101400000000060060001000e080180000000600e8
:10141000881f7800030478000300e00007003d0007
:1014200060001000e080180060011900e0811900e0
:1014300002003b0001f02d0003003700040007000c
:1014400008f0a70001f0a0004f047800000006009b
:10145000889fbe008a9fbe00008270000402710057
:1014600004827100260032000004be000200be00ab
:101470006011b8006b092000950220000182cf00a6
:101480000a0039000541b1000082cf000700390091
:101490000541b1000982cf00040039000541b100c7
:1014a0000882cf00010039000541b1000542520019
:1014b000120032000a003b00828171006101640069
:1014c0008100d1000080d3008984d3000884d30038
:1014d0008b05e8000442e800f7ff3a0007003700f8
:1014e0000804440089844c000000480081804800c2
:1014f0008b05e9000442e900f9ff3a000300070008
:101500004f05be004f04be00000006008100200011
:10151000618055000b003d000b00200061fe2f0094
:101520000100e1001d00340082817100610164004e
:101530008904d1000884d3000000e800faff3a00d3
:101540007100200061006400030070000200600070
:101550000900320061044400e0844c000988a500c1
:10156000050032008b05e8006808e10002003a003f
:101570008904d1000884d300f20f20000258e10052
:1015800005003d00c75ddd00f907b20089807500e8
:1015900008007800000006000bf827008b00780098
:1015a000000005000000fa00e88157004fb99700dd
:1015b000ef0107000080fa0000000600130007009a
:1015c0006b0007001c010700440107009d00070095
:1015d000640207000f0237000000fa00688157001c
:1015e000cfb89700070207000080fa00000006004d
:1015f000060007005e0007000f0107003701070023
:10160000900007005702070002023700ec874700ee
:10161000889fbe008a9fbe008c9fbe008e1f7800f0
:101620000006780001047800180790002805900053
:1016300098067800cdb79f00b80590003202be0032
:101640002203be000400be000601be004f18de00eb
:101650006011b8008000eb00d0b79f00e1b79f0099
:10166000f2b79f0083bf9f00800478000900e0006c
:10167000060032006000b8006011b800040250009b
:101680008582580006035900878359000e00e00048
:10169000020035000d10a100cdb79f000900e00049
:1016a00005003a004fb097000028a30002003a005e
:1016b0000038a300020032008a00e9000100370070
:1016c0008a007800f8815700a20020000800780006
:1016d000860007000900e00003003a00cfb0970041
:1016e0000128a300080032000000e9000081450045
:1016f000b1c2b3000900e00001003200d1c2b30062
:1017000001497800050037000138a30003003200ca
:101710000000e90001c2b300817578004801900023
:101720000201e90000015100808045004fb297009e
:101730008a0178000c007800550207009c00900098
:101740000188a3000400320098009000810f50002f
:1017500001003d00010078004f0778004f06be00f1
:101760004f05be004f04be00cf00b10000000600d0
:101770000200fa00889fbe008a9fbe0080057800a4
:1017800001047800020078001801900028059000fc
:1017900098007800b1bf9f00b80490000200e000fc
:1017a000020035000110a100b1bf9f00ea8157007f
:1017b000820020008a0078003002be002003be00b4
:1017c00008007800490007003fb99700f000610069
:1017d000030032000000e90001c3b3008174780007
:1017e0003fb99700e8006100030032000000e90003
:1017f00001c2b30081747800480190000201e90041
:1018000000015100808044003fba97008a017800af
:101810000b0078001e0207009b0090000188a300c7
:101820000400320098009000810f500001003d003c
:10183000010078004f05be004f04be000080fa0092
:1018400000000600ea874700889fbe008a9fbe000e
:101850008e1f78000004780003007800728757001c
:1018600084e2260055c72600049fbe00c3962200ce
:10187000030f78006c875700004feb0011059000b4
:10188000a1049000910578000200e00002003200ff
:101890000207780001003700728757000000e0005f
:1018a00002003a000e007800730407000a00e0000e
:1018b000030035008a0f5000010036000a0078004e
:1018c0000b02780089017800000178008e00780012
:1018d00008007800ee0107004f0778004f05be00b2
:1018e0004f04be00af00b10000000600f4874700bf
:1018f000889fbe008a9fbe008c9fbe008e1f78000e
:101900000605be000404be0081bf9f0082b79f0091
:10191000f3b79f00b0009000e1b79f00130178007b
:1019200092b79f0090069000400090000000e900f0
:10193000000678000d00e00001003d001d002000c1
:101940008040eb00efb19700817178001e0020000d
:101950001f0037000c06e9000fb09700cf80de00b3
:101960006109b900a0b79f00b1b79f00c2b79f003f
:10197000d3b79f000203be000002be000800be00f5
:101980000a01be0054050700000778000e407800e9
:101990000043b000efb0970080707e008d06e90034
:1019a0000fb997000201e90082bf9f002fb2970094
:1019b000bfb297004fb39700dfb397000800be0097
:1019c0000a01be003d0507000205be000004be007e
:1019d0000c00e0000d003400e00f5400e08f5c00cc
:1019e000e00f5d00e08f5d00daff3a000d00e000df
:1019f000d8ff3c008fb997000300e00003003400db
:101a00001fb097000018a300d2ff3a000e00e000bc
:101a100002003a00ffb097001140a1000c007800ce
:101a20004f0778004f06be004f05be004f04be00b2
:101a30004f01b100000006000200fa00889fbe00be
:101a40008a9fbe000005780001047800020078003b
:101a500018019000a804900098007800b1bf9f0082
:101a6000b80590000200e000020035000110a1005e
:101a7000b1bf9f00ea815700a200200089007800d2
:101a80003002be002003be000800780097ff070068
:101a9000480190000201e9000001510080804500ea
:101aa0003fba9700890178000a00780078010700a2
:101ab0009a0090000188a300040032009800900072
:101ac000810f500001003d00010078004f05be006d
:101ad0004f04be000080fa0000000600fa874700ad
:101ae000889fbe008a9fbe008c9fbe008e1f78001c
:101af00080047800010478008205780018019000c5
:101b00002805900018077800b80090000200e00057
:101b1000020035000e10a100010037001200200065
:101b200070006700e0b79f00090032003b02be0072
:101b30002b03be00e00f5200e08f5a00e00f5b0065
:101b4000e08f5b00020032008a86e9000100370066
:101b50008a067800e8026700f5b79f0001003200ae
:101b60008d06e9003b02be002b03be00e4af9f00e0
:101b7000f5af9f0086b79f0097b79f00480690007b
:101b80000c06e9000040eb0080707e00efb2970089
:101b90007fb297008903780081047800d8af9f0056
:101ba000020478008bbf9f008a0578000345780007
:101bb0002a0037000c06e9006fab97006f00630046
:101bc000e90f500002003c000003b00001003700a4
:101bd0007005b0000a03fb001604b100f90f5300b2
:101be0000c003e00000378000650a0001606b1006d
:101bf000f90f530007003e00b4b79f00a5b79f0040
:101c0000c7b79f00bb030700cfb39700afb29700e1
:101c10003fb2970080747e000804e9008d06e90059
:101c20006fa89700ffa897000fb197009fb197008a
:101c3000460020008301d1000281d3008180d300bf
:101c40000080d3000603e900faff3a00e0af9f00ee
:101c5000f1af9f0082b79f0093b79f00e10f56003e
:101c60000f0034006fa89700ffa897000fb19700ee
:101c70009fb19700e00f5000e08f5800e00f59002f
:101c8000e08f5900cbff3a000800e000c9ff3c009c
:101c90000d00e000020034000e18a300c5ff3a005a
:101ca00089007800f4b79f00870478005fac970044
:101cb0008a4178000b0578008fbd97000500e00091
:101cc000100032003b02be002b03be00e4af9f00b9
:101cd000f5af9f0086b79f0097b79f00e00f5200b7
:101ce000e08f5a00e00f5b00e08f5b0005003200e0
:101cf0000c06e90083707e000c06e90000c3b30007
:101d000080707e00ffb297000500e0000300320003
:101d10000c06e90000c2b30080707e00480190000c
:101d20000201e9000c0151008c8040000e02780095
:101d30008a01780009007800d5000700990090001a
:101d40000188a3000400320098009000810f500029
:101d500001003d00010078004f0778004f06be00eb
:101d60004f05be004f04be00af01b10000000600e9
:101d7000f28747008e1f7800020278000301780086
:101d80000000e00002003200000778000100370088
:101d9000728757008002eb000100e0000100320072
:101da0008102e90070805700060009000018eb006e
:101db0000080eb0080bf9f002310200093bf9f0096
:101dc000aebf9f00b1bf9f00c5bf9f000100e000f4
:101dd00003003d00b1042000516588000600370073
:101de000004feb00eebf9f00debf9f008400780035
:101df00070805700460307004f0778002f01b1009d
:101e0000000006008201780001017800f1ff270040
:101e1000d7ff370084082000848f50001d00320057
:101e20000d003c0014082000848f50002700320071
:101e300002003c00040820000400370024082000b1
:101e4000848f50003400320044082000848f5000fa
:101e500043003a0036003700040a2000848f500007
:101e60002700320004003c0004092000848f500049
:101e70003b003a0028003700020c2000828f5000ff
:101e80002f003200020f2000828f500034003a00f1
:101e90002b0037009380e9000200e00005003200cb
:101ea000810978001102fb00cfa2de00612bb9008e
:101eb0002800370081097800114278000482fb0075
:101ec0008002eb006033b800220037001302780074
:101ed000e40052000200e0000500320081097800b1
:101ee0001102be004fabde008603780019003700f8
:101ef000810978001102be006033b8001500370078
:101f00009380e9008109780011027800cfa2de00f9
:101f1000612bb9000f00370093027800e88052006f
:101f2000810978003102be002103be00090037009c
:101f30009380e9000200e00002003200f1ff370068
:101f40009380e90081097800110278008002eb009b
:101f50006033b8000498be000690be001000050073
:101f60000000050044082000848f50002500320046
:101f700008003c0014082000848f50001400320038
:101f800024082000848f5000240032000408200020
:101f90000c00370004092000848f50001f0032001d
:101fa00004003c0084082000848f500024003a0084
:101fb0000e003700040a2000848f50001100320008
:101fc000040c2000848f50001d003a000d003700e3
:101fd0009380e90081097800910078000108780079
:101fe000cf91de008288be00140037009380e900a4
:101ff0008109780091007800010878008248780013
:102000000e0037009380e900810978009100780084
:102010000108780082087800080037009380e90002
:102020008109780091007800010878006112b900f8
:10203000612bb9008498be008690be001000050098
:1020400000000500889fbe00000478004800900052
:1020500082047800808f54000100360080047800ec
:1020600009017800580090001802070058009000fd
:102070000900400050049800c80090008984500076
:10208000490498000048eb004f04be000000060021
:10209000f2874700889fbe008a9fbe008c9fbe00cb
:1020a0008e1f780080047800010578000204780013
:1020b000830578006107620002003a008b0f54002c
:1020c00008003900080178008a00780009007800cb
:1020d000dcff07008b0f54000200390088057800f0
:1020e0001e003700088655000c017800f00f5600de
:1020f0000100360002012000010220007e8057000e
:10210000f90107008c067800050037000201200065
:10211000fe80570009007800caff0700f0865600cd
:10212000ef8f5600f9ff3e004461de0000ff2f00f4
:102130000091b90002014600fe80570009007800b6
:10214000c0ff07000e00e00004003a00080178001c
:102150008a00780009007800baff07000b007800b9
:102160004f0778004f06be004f05be004f04be006b
:102170002f01b1000000060000000500000005006e
:1021800000000500000178000040eb008080fb00ab
:102190008180400003c8200063c278000404e0008e
:1021a00003003a0010c8200060c07800000006005c
:1021b00092017800934f520004003a0010c82000aa
:1021c00060c078000309e800010037000040e80023
:1021d000ea4f5000edff360000000600f68747008a
:1021e000889fbe008a9fbe008c9fbe008e1f780015
:1021f0000005780001047800830578000406780063
:102200000000eb00c0b79f008080eb00d1b79f00bb
:10221000e0b79f00f2b79f000008200080bf9f003a
:1022200098007800010078008004eb00010037007e
:102230008904e800304178000204e0000300320025
:1022400053c2b300834f5100f9ff3a000900e00088
:1022500004003200090178000a00780079ff0700c5
:10226000188c44001807780050c2b3009e4f10002d
:102270003f013a000e07e8000e0c7800100037000e
:10228000cfb097000100a0000b003700cfb097003f
:102290000110a00008003700cfb097000120a00077
:1022a00005003700cfb097000130a00002003700d2
:1022b000cfb097000140a000c1b79f00000ce8001c
:1022c0001800780090407800b2c2b30082cf50006e
:1022d000f1ff320007003c0002c2b30082cf500081
:1022e000f0ff320032c2b30082cf500007003a0044
:1022f000efff3700d2c2b30082cf5000e0ff3200c0
:1023000002c3b30082cf5000e0ff3200a2c2b3008c
:1023100082cf50000d003a00000ce8001c80e9005c
:10232000000e780010007800e0b79f000000e00089
:102330000f003d00cfb097000100a200c1b79f0081
:102340000000ea00e0b79f000900370039010700ec
:10235000e0b79f0001003700000ce800180078008b
:102360009000fb000103b100e98f5000faff360036
:102370004fb097000008a300020032000010a10037
:10238000c0b79f0018007800e1c2b30090cf1000e2
:1023900016003a008000eb00d1b79f000000e80073
:1023a000000c7800a1c2b30090cf100006003a00e4
:1023b000000ce8001c80e900000e78001000780096
:1023c000d0b79f00090037001a010700d0b79f005f
:1023d00001003700000ce800180078009000fb00b6
:1023e0000103b100e98f5000faff360008007800c1
:1023f00064ff070080467800180078001000fb009a
:10240000b501070091062000810f5000380032000e
:1024100012003c0041062000810f500034003200c1
:102420000a003c0011062000810f500020003200fd
:1024300031062000810f5000a00032005102200020
:10244000810f5000bc003a00b40037007106200034
:10245000810f5000b8003c008800370001072000c1
:10246000810f50005c00320007003c00e1062000b4
:10247000810f50007a003200f1062000810f5000d9
:10248000ad003a003900370051072000810f50009d
:102490002700320081072000810f500042003200e7
:1024a00031072000810f5000a3003a008f00370051
:1024b0008d80fb000c01780000fe2f000f00400013
:1024c000a10107000000e000a80032001800780019
:1024d000000ce8009041780002fe2f000f0141003f
:1024e000f88057000a00780024ff07000e0037002c
:1024f0008d80fb008c0178001200200000fe2f0070
:102500000f00400043fe07000000e000970032008b
:10251000180ce80002fe2f000f014100f880570060
:102520000a00780039fc07008084440090003700de
:102530008d80fb008c0178000001eb0000fe2f0075
:102540000f00400033fe07000000e000870032006b
:10255000180ce80002fe2f000f014100f880570020
:102560000a00780034fd0700efff37008d80fb0084
:102570008c0178000001eb0000fe2f000f004000ee
:1025800024fe07000000e00078003200180ce8008c
:1025900002fe2f000f014100f88057000a0078006a
:1025a00073fc0700e0ff37008d80fb008c01780092
:1025b0000001eb0000fe2f000f00400015fe070099
:1025c0000000e0006900320018007800000ce8000c
:1025d000904178001c0037008c0178000001eb006e
:1025e000010f200000fe2f000f00400009fe070031
:1025f0000000e0005d003200180ce8000fb097000a
:102600009fb097002fb19700bfb19700e00f500027
:10261000e08f5800e00f5900e08f590009003a00a0
:10262000cfb597006fb4970080c720001201070054
:102630000b027800880178000001780081c7200033
:102640004700370083c7b30002fe2f000f0141008f
:10265000f88057000a00780020fd0700b2ff37001d
:102660000b8144008d80fb008c01780000fe2f0060
:102670000f0040003bfe07003c0037008d80fb0050
:102680000c01780000fe2f000f0040002e01070013
:102690000000e0003500320018007800000ce8006f
:1026a0009041780002fe2f000f014100f880570092
:1026b0000a007800b1fe07009bff370000c8b30096
:1026c00080cf560029003a00180ce8001c80e90071
:1026d000000e780010407800e0df9f00130020001b
:1026e000e2fd2f000f0141000800370000c8b300d1
:1026f00080cf56001d003a00180ce8001c80e9004d
:10270000000e78008001eb0010017800f88057007f
:102710000a0078004bfc070083ff370000c8b300b5
:1027200080cf560011003a00180ce8004fb2970015
:10273000efb19700080037000e0c78000000eb00a6
:10274000c0b79f00e0b79f000080eb00d0b79f00ac
:102750000002eb008401780012002000e1c7200095
:102760000a0078004afe07006fff3700180ce800e7
:10277000090078004f0778004f06be004f05be00e5
:102780004f04be006f01b100000006008200fa0095
:10279000889fbe008a1f78000005780082047800b8
:1027a000c13f9f000004eb001000370009027800d1
:1027b00088017800a2f72f000f01410081f72f0058
:1027c0008f8040000a00780084fe07000800400067
:1027d000880f500004003d00b004200050658800c0
:1027e0000084eb0004003700000478004f389700a5
:1027f0001004e000edff3a00080078004f05780073
:102800004f04be000080fa0000000600800078003f
:102810001000200002022000828f500004003200cd
:10282000e9805000e48f5000010036000000eb000a
:1028300000000600889fbe008a1f7800000578000f
:102840000a047800984478000805e8000900fb00b5
:10285000eeff07000000e000f9ff3a00b0c2b3004d
:1028600080cf540005003200d0c2b3008000eb00de
:1028700080cf540005003a00020037008000eb00d2
:1028800001003700110020000804e8000000eb0000
:10289000030037006a02b900020052000003b000d2
:1028a0003801fb0003fd2f0082814100e98f5100b8
:1028b000f8ff36000100e00001003a000000ea00e5
:1028c0004f0578004f04be0000000600800178002c
:1028d00002003700b15978000201e9000200e0006f
:1028e000fcff3a0000000600889fbe008a9fbe00e1
:1028f000800478000200e0005b00320001407800b4
:10290000814c780082814400f1f99f00e20f510070
:102910005500360091449800a1449800e1f99f00c9
:10292000d1f99f00e60f51004f003600b1449800e6
:10293000c1f99f00e80f51004b0036000905ea007d
:10294000630565000a8444000a055100c1ff2f0099
:10295000010565000080fb008000eb0012102000e4
:1029600013102000b6000700008cbe000a014400ce
:1029700060b99f0071b99f00e80f55003a0036001a
:1029800020049800310498004004980051049800f5
:1029900020b99f0031b99f0040b99f0051b99f00f5
:1029a000f80f55003000360060049800710498005c
:1029b000000c9800110c9800200c9800310c980025
:1029c000400c9800510c980020b19f0031b19f003d
:1029d00040b19f0051b19f0060b19f0071b19f0055
:1029e00000b99f0011b99f006401640078014100a3
:1029f00002044400020555006011b8000203be0045
:102a00000002be000403be006022b8000000720095
:102a1000818072000201730083817300100037000f
:102a2000009cbe000294be0040049800510498002f
:102a30006204980073049800000c9800110c980030
:102a4000220c9800330c9800400c9800510c980010
:102a5000620c9800730c98000a02b1000802b000e2
:102a6000ff0f5500eeff3e00090078004f05be0045
:102a70004f04be000000060080007800040037000c
:102a80003104e00002003a0000005100000006009e
:102a9000010178000108a300f9ff3a0081017800e4
:102aa00031017800f4ef2f00020242000281ea00b7
:102ab000020162000408280004016100f7ff3200ef
:102ac00083007800010178003104e000fdff3a0046
:102ad0000000510000000600f1fb2f008080400044
:102ae000f98f500001003e000050a00000000600d9
:102af000f9ff3700f1f92f0080804000f98f500076
:102b000001003e00f005b20000000600f9ff3700aa
:102b10000200fa00881f780000047800e2bf9f00de
:102b2000648157000800780018ff070098009000a3
:102b30000148a300010032000080eb004f04780040
:102b40000080fa0000000600881f7800000478006a
:102b500000082000808f500017003500100820006a
:102b6000808f50000b00340030082000808f500010
:102b700011003a0092007800688050000009780047
:102b80003002be002003be00049cbe000694be00be
:102b90000700370092027800648052000009780034
:102ba0001000be0007000700009cbe000294be009b
:102bb00010002000010037000000eb004f047800f7
:102bc00000000600810378005cf707000001be00ea
:102bd0006000b8000478a30013003a006220e1000e
:102be00015003e000d0039008301d1000281d300a1
:102bf0008180d3008301d1000281d3008180d30082
:102c00008301d1000281d3008180d3000538b00058
:102c1000c42add00f300b2008381720007f0a70030
:102c200003f0a0000000060083ff27000200200040
:102c30006110b900f9ff370003ff2700f7ff3700e5
:102c4000020ab900001bb9000200b800810042006e
:102c50008100430000000600889fbe008a9fbe00de
:102c600030044200b0844a0030054b0090854b0090
:102c70006000b1000898be000a90be000440e10068
:102c800005c8e10006d0e10007d8e10002003100ec
:102c9000680040001008e8004f05be004f04be0069
:102ca00000000600889fbe008a9fbe003004be0060
:102cb0002005be000418540005985c0006185d004d
:102cc00007985d00110020000440e10005c8e10004
:102cd00006d0e10007d8e100010039008000eb00d8
:102ce000108810004f05be004f04be000000060013
:102cf0001200fa00889fbe008a9fbe008c9fbe0013
:102d0000e0b79f00f1b79f0082bf9f0093bf9f0075
:102d10000605be000404be000000eb00d0b79f0013
:102d2000c0b79f00b0b79f00a0b79f0090b79f00ab
:102d3000000678005fb19700cfb097008201410094
:102d40003fb097000200e00004003d00370007009c
:102d50007e805700c0ff07000300370033000700e4
:102d60007e805700cfff0700dfb697000d00e00020
:102d70000c0035006fb29700ffb297000fbb9700b1
:102d80009fbb970010002000010020006011b800d8
:102d90000002720081827200020373008383730059
:102da0001b0007000c06e80001042000810f5600fc
:102db000e0ff3a000d00e00004003d000802be0004
:102dc0000a03be007e805700a3ff07005fa897009c
:102dd0000000e00005003a001fb29700afb2970074
:102de0003fb39700cfb39700090007006fb097007b
:102df000ffb097000fb997009fb997004f06be002c
:102e00004f05be004f04be000080fa00000006001f
:102e10000100070000000600a4b79f00b5b79f009f
:102e2000c6b79f00d7b79f00000006004f09de001d
:102e300082817100b3b79f004f01de0081804000a6
:102e400082807000a1b79f008fb097004f09de000d
:102e5000000040000200700090b79f007fa897001c
:102e60004f01de00818040008280700081b79f00aa
:102e70000d0007004f3ade00000040000400700023
:102e8000f0af9f00080007000402420085824a005c
:102e900006034b0087834b00dfff07000802be00dc
:102ea0000a03be00000006002fb29700bfb29700d1
:102eb0004fb39700dfb3970000000600881f78002b
:102ec00018002000881f780089ff07008f87e9001d
:102ed0004f04780000000600801feb0084ff07000d
:102ee0008f87e90000000600889fbe008a9fbe0011
:102ef000e00f5000e08f5800e00f5900e08f5900bc
:102f00000c003d006044b8006055b800000054005b
:102f100081805c0002015d0083815d00180020005b
:102f20001500070008003d00180007000004eb0032
:102f3000050037000004eb000f00070002003d0011
:102f40001200070018002000dcff07000800e00066
:102f5000060032006022b8006033b8000000520062
:102f600081805a0002015b0083815b004f05be0037
:102f70004f04be0000000600e00f5200e08f5a0030
:102f8000e00f5b00e08f5b00000006006044b800cb
:102f90006055b8000402540085825c0006035d00a1
:102fa00087835d0000000600889fbe008a9fbe00e8
:102fb0008c1f7800e00f5000e08f5800e00f5900a0
:102fc000e08f59000d003d006044b8006055b80026
:102fd0000000540081805c0002015d0083815d007f
:102fe0001c0020000820e10009a8e1000ab0e1006f
:102ff0000bb8e1000d003d00080037000006eb00b3
:10300000e00f5200e08f5a00e00f5b00e08f5b00a2
:1030100006003d006044b8006055b800040254004a
:1030200085825c0006035d0087835d00aaff0700c0
:103030000c00e000060032006022b8006033b800e7
:103040000000520081805a0002015b0083815b0016
:103050004f0678004f05be004f04be00000006007a
:020000040000fa
:103060007b220000696e0000707500007473000020
:10307000223a000020250000692c000020220000d8
:1030800067610000696e0000223a00002025000000
:10309000692c000020220000766f00006c75000093
:1030a0006d650000223a000020250000692c000018
:1030b00020220000626100006c6100006e6300006d
:1030c000652200003a200000256900002c20000045
:1030d000226d000075740000652200003a20000097
:1030e000256900002c200000226d00006f6e00009a
:1030f0006f2200003a200000256900002c2000000b
:103100002268000076730000223a000020250000ab
:10311000692c000020220000725f0000746500002e
:10312000726d0000223a000020250000692c00008a
:10313000226300005f740000657200006d220000d1
:103140003a200000256900002c2200006f76000064
:10315000657200006c6f000061640000223a00009c
:10316000256900002c2200006874000062790000cc
:10317000702200003a250000692c00002270000037
:103180006f77000065720000223a00002569000098
:103190002c220000666100006465000072220000bd
:1031a0003a22000025690000227d00002020000056
:1031b00020000000736500006e64000020730000b2
:1031c0006f6d0000652000004a5300004f4e000064
:1031d000206e00006f770000212000000d0a000023
:1031e0000049000053520000207400006573000085
:1031f000742000000d0a0000005000004f5700002e
:103200004552000020550000502000000d0a00002b
:10321000005000004f5700004552000020440000bd
:103220004f5700004e2000000d0a00000050000023
:103230004f57000045520000200d00000a0000001a
:1032400041740000746500006e7500006174000038
:103250006f72000020560000616c00007565000070
:10326000203d00002020000025690000200d000006
:103270000a000000564f00004c5500004d4500006c
:1032800020550000502000000d0a000000560000ec
:103290004f4c0000554d000045200000444f0000f9
:1032a000574e0000200d00000a0000004d550000a0
:1032b00054450000200d00000a0000004d4f0000a2
:1032c0004e4f0000200d00000a000000494e000093
:1032d0005055000054200000312000000d0a00006d
:1032e000004900004e5000005554000020320000fc
:1032f000200d00000a000000494e0000505500005b
:1033000054200000332000000d0a00000049000096
:103310004e5000005554000020340000200d0000e5
:103320000a000000494e00005055000054200000e3
:10333000352000000d0a0000004900004e5000003a
:103340005554000020360000200d00000a00000047
:10335000494e000050550000542000005345000025
:103360004c45000043540000205500005020000050
:103370000d0a0000004900004e50000055540000a6
:1033800020530000454c000045430000542000003d
:10339000444f0000574e0000200d00000a000000be
:1033a00043410000504100004349000054410000e7
:1033b0004e4300004520000055500000200d000045
:1033c0000a00000043410000504100004349000052
:1033d000544100004e43000045200000444f0000cf
:1033e000574e0000200d00000a000000524500006a
:1033f0005349000053540000414e00004345000073
:1034000020550000502000000d0a0000005200006e
:103410004553000049530000544100004e43000052
:1034200045200000444f0000574e0000200d0000d2
:103430000a000000424100004c4100004e430000e1
:103440004520000052490000474800005420000079
:103450000d0a000000420000414c0000414e0000f7
:1034600043450000204c0000454600005420000069
:103470000d0a000000420000414c0000414e0000d7
:103480004345000020430000454e00005445000025
:10349000522000000d0a000000640000696d000069
:1034a00020750000702000000d0a0000006400007c
:1034b000696d0000206400006f7700006e2000003e
:1034c0000d0a0000006800007462000079700000be
:1034d000200d00000a0000004d4100004e4c00008d
:1034e00045590000204c00004142000053200000dc
:1034f000505200004543000049530000494f00006e
:103500004e200000504800004f4e00004f200000a9
:1035100050520000454100004d5000004c49000051
:103520004649000045520000204600004952000074
:103530004d57000041520000452000000d0a0000d8
:103540000056000045520000534900004f4e000055
:10355000204d0000504c0000503300002d32000080
:103560002d3300002d320000352000000d0a000030
:10357000004d0000616e00006c65000079200000c5
:103580004c610000626f000072610000746f000007
:103590007269000065730000204900006e6300003e
:1035a000203100003338000038300000204d00008a
:1035b000616700006e6f00006c6900006120000010
:1035c00041760000652c000020430000686900007f
:1035d0006e6f00002c2000004341000020390000e5
:1035e0003137000031300000200d00000a000000db
:1035f000486100007264000077610000726500009d
:103600002044000065730000696700006e20000020
:10361000427900003a2000004d6900007463000008
:10362000682000004d610000726700006f6c0000b0
:10363000697300002c200000487500006d620000d6
:1036400065720000746f0000205200006f6400007b
:103650007269000067750000657a00002c20000088
:103660004a6500006666000072650000792000006f
:10367000426f0000726f0000777300006b690000fa
:103680002c2000004c61000077720000656e000085
:1036900063650000204a0000616e00007573000041
:1036a000202000000d0a00000046000069720000a2
:1036b0006d77000061720000652000004279000013
:1036c0003a2000004761000072790000204c0000a1
:1036d0006f720000642000002d200000576500007c
:1036e00073740000204300006f61000073740000d9
:1036f0002e200000546500006c3a000028330000c2
:103700003130000029380000323800002d3200002e
:1037100035390000302000002e2e00002e20000041
:103720000d0a0000002e00002e2e0000616e000029
:10373000642000004c61000077720000656e00009c
:1037400063650000204a0000616e00007573000090
:10375000202d00002045000061730000742000004f
:10376000436f000061730000742e000020540000bd
:10377000656c00003a28000039350000342900004b
:1037800039380000392d0000323800003235000091
:10379000202000000d0a00000050000049440000f5
:1037a00020310000200d00000a00000053540000ea
:1037b000414e000044420000592e00002e2e000011
:1037c0002e57000041490000544900004e470000b8
:1037d000204600004f52000020410000204200001f
:1037e00055540000544f00004e200000505200007d
:1037f00045530000530d00000a0000006e650000f4
:1038000077200000636f00006e740000726f00008c
:103810006c0d00000a000000504900004420000028
:10382000342000000d0a0000004f000075740000f5
:10383000206f00006620000073740000616e0000bd
:1038400064620000792000000d0a000000490000b9
:103850006e7000007574000020530000656c00005d
:103860006563000074650000643a000020250000d4
:10387000782000000d0a0000004700006169000088
:103880006e200000536500006c650000637400004a
:10389000656400003a20000025780000200d00003b
:1038a0000a00000020500000574d000020200000ba
:1038b00025690000200d00000a000000566f00007e
:1038c0006c7500006d65000020740000696d0000db
:1038d000652000000d0a0000004900006e70000025
:1038e0007574000020740000696d00006520000000
:1038f0000d0a000000350000204e00006577000032
:10390000204300006f6e0000747200006f6c0000b6
:10391000200d00000a000000352000005761000063
:10392000726d000075700000206300006f6d000074
:10393000706c000065740000650d00000a00000056
:1039400050490000443600002d4e00004320000086
:103950000d0a0000004600006f7200006365000061
:10396000642000005368000075740000646f00005c
:10397000776e0000205000006c650000617300004d
:10398000652000000d0a0000005600006f6c00006a
:10399000756d00006520000043680000616e000046
:1039a0006765000020540000696d0000652000007c
:1039b0000d0a0000004900006e70000075740000e0
:1039c00020430000686100006e6700006520000071
:1039d000546900006d650000200d00000a00000021
:1039e0004f760000657200006c6f0000616400009b
:1039f00021200000554e0000202d0000204d000029
:103a00005554000045210000200d00000a00000070
:103a10003539000020530000746100006e6400001e
:103a20006172000064200000546900006d650000b0
:103a3000204f000075740000200d000000200000e1
:103a4000496e00007075000074200000616e000077
:103a50006420000054650000726d000020700000ba
:103a6000726500007373000065640000200d0000a3
:103a70000a000000353900002053000054410000c6
:103a80004e44000041520000442000002054000039
:103a9000494d0000454f0000555400002020000013
:103aa0000d0a0000003500003920000053540000ca
:103ab000414e0000444100005244000020540000e8
:103ac000494d0000454f00005554000020420000c1
:103ad00055540000544f00004e200000484500009f
:103ae0004c440000200d00000a200000004d0000a2
:103af0007574000065200000416c00006c2e000011
:103b00000d0a000020000000556e00004d750000f9
:103b100074650000204d0000616900006e20000007
:103b20004f75000074700000757400002061000083
:103b30006674000065720000204c0000696e000091
:103b4000652e00000d0a000020000000556e0000e8
:103b50004d75000074650000204d00006169000093
:103b60006e2000004f750000747000007574000036
:103b700020610000667400006572000020500000a3
:103b8000686f00006e6f00002e0d00000a2000001c
:103b900000350000322000007465000073740000de
:103ba00020730000746500007062000079730000eb
:103bb00074650000703d0000310d00000a20000017
:103bc00000470000616900006e2000005a65000097
:103bd000726f0000200d00000a000000333000006a
:103be00020470000616900006e200000736500003e
:103bf000742000006c65000064730000200d00005c
:103c00000a2000000033000030200000544900006a
:103c10004d4500004f550000542000006761000032
:103c2000696e000020630000686100006e6700009c
:103c3000652000007365000074200000726c0000b5
:103c400079730000202000000d0a000000470000ea
:103c5000616900006e20000043680000616e000092
:103c60006765000020740000696d00006521000098
:103c7000212000000d0a0000003100003620000065
:103c8000566f00006c7500006d6500002074000028
:103c9000696d0000656f000075740000200d000064
:103ca0000a0000003136000073790000736e0000d6
:103cb0006f770000207600006f6c00002d2500005b
:103cc000780d00000a00000032350000204d000091
:103cd00075740000652000000d0a0000003200002d
:103ce000352000004d6f00006e6f0000200d0000b9
:103cf0000a000000363600002064000069730000ee
:103d0000706c0000617900002053000065740000b1
:103d1000426100006c2000000d0a00000036000027
:103d20003820000020620000616c0000616e00001d
:103d300063650000206b00006e6f000062200000d1
:103d4000616400006a75000073740000200d0000bb
:103d50000a0000002036000038200000544900000e
:103d60004d4500004f55000054200000200d00007c
:103d70000a000000204800005442000050200000cb
:103d800042750000747400006f6e0000206900002e
:103d9000732000005072000065730000736500001e
:103da000642000000d0a00002000000020480000f0
:103db0005442000050200000414200004f520000d9
:103dc00054200000636c0000656100006e75000007
:103dd0007020000070690000643f0000200d0000aa
:103de0000a0000002048000054420000502000005b
:103df000546900006d6500006f75000074200000bc
:103e00004b6500006570000020480000544200002f
:103e1000502000006d6f0000646500002c20000041
:103e2000676f0000207400006f20000073740000b2
:103e3000616e00006462000079200000200d000027
:103e40000a000000343700002048000054420000ff
:103e50005020000073650000742c0000206e0000ec
:103e60006f77000020730000687500007464000024
:103e70006f7700006e2000000d0a00002000000097
:103e8000392000007374000061720000742000008b
:103e90005368000075740000646f0000776e0000c6
:103ea000202000000d0a0000002000004750000004
:103eb000746900006d65000072200000202500007c
:103ec000692000000d0a00000031000030200000d1
:103ed00062750000747400006f6e000020740000b2
:103ee00072610000702000000d0a00000043000015
:103ef000616c00006c20000050490000442000006c
:103f0000392c000020730000687500007464000004
:103f10006f7700006e2000000d0a0000006d0000a9
:103f2000616900006e200000736800007574000075
:103f3000646f0000776e0000206300006f6d00006a
:103f40006d6100006e640000200d00000a0000009a
:103f500020540000494d0000454f0000555400001a
:103f6000202000000d0a00000063000061730000c3
:103f7000652000003133000020200000736800003d
:103f800075740000646f0000776e0000200d000063
:103f90000a000000476900006d6d00006520000008
:103fa0005049000044200000382000000d0a0000a5
:103fb0000000000053650000727600006963000095
:103fc000652d0000004900006e4b00006e6f000080
:103fd000622d0000004900006e7000007574000042
:103fe000206d00006f64000065200000302000009c
:103ff0000d0a0000004900006e700000757400009a
:10400000206d00006f64000065200000203100007a
:10401000200d00000a000000496e000070750000cd
:10402000742000006d6f0000646500002032000005
:10403000202000000d0a000000200000496e000052
:1040400070750000742000006d6f00006465000052
:1040500020330000200d00000a000000566f000011
:104060006c7500006d650000206b00006e6f000035
:10407000622d0000007600006f6c0000756d00007e
:10408000652000006d6f00006465000020300000b6
:10409000200d00000a000000766f00006c75000023
:1040a0006d650000206d00006f6400006520000059
:1040b000312000000d0a0000005600006f6c000067
:1040c000756d0000652000004d6f00006465000004
:1040d00020320000200d00000a000000566f000092
:1040e0006c7500006d650000204d00006f640000dd
:1040f00065200000332000000d0a0000005400007d
:10410000657200006d2000006b6e00006f620000a1
:104110002d00000054650000726d0000204d00006d
:104120006f64000065200000312000000d0a0000cf
:1041300000540000657200006d2000006d6f0000eb
:104140006465000020320000200d00000a0000001d
:1041500054650000726d0000206d00006f64000067
:1041600065200000332000000d0a00000000000060
:1041700069620000757400007320000020200000b8
:104180003078000025580000200a00000d000000d3
:1041900020730000797300006e6f00007733000019
:1041a0002030000078250000582000000a0d000093
:1041b0000069000062750000747300002030000088
:1041c00078250000582000000a0d00000073000050
:1041d000797300006e6f000077320000203000001d
:1041e00078250000582000000a0d00000073000030
:1041f000797300006e6f00007733000020300000fc
:1042000078250000582000000a0d0000007300000f
:10421000797300006e6f00007731000020300000dd
:1042200078250000582000000a0d0000004c000016
:104230004544000020500000574d000020200000a1
:104240000d0a000000730000797300006e6f00001b
:1042500077330000204c000045440000203000006f
:1042600078250000582000000a0d000000690000b9
:1042700062750000747300002e7700006420000057
:104280003078000025580000200a00000d000000d2
:1042900072650000636100006c6c00002073000018
:1042a000636500006e650000204900006e7000002c
:1042b0007574000020300000782500007820000090
:1042c0000a0d00000052000074650000726d0000cd
:1042d000204c0000454400005320000030780000ce
:1042e00025780000200a00000d00000000320000c8
:1042f0003c46000050550000575a00005d5f00002a
:10430000646e000073760000787d00007f0000007e
:1043100046520000414d0000205700005249000065
:1043200054450000200d00000a0000004652000025
:10433000414d000020520000454100004420000093
:104340000d0a00000020000073790000736e000069
:104350006f770000343a000020300000782500001c
:10436000582000000d0a000000000000766f0000d9
:104370006c7500006d650000206100006374000032
:08438000696f00006e000000ef
:020000040000fa
:104388000200fa00004f7800000000009111800040
:1043980000102000008060000000e000fbff3200f9
:1043a8001e80fb00a0118800000000001111800091
:1043b80000102000008060000000e000fbff3200d9
:1043c8001e80fb00201188000080fa000000060013
:1043d8000200fa00000f7800040037001e00780081
:1043e800104078005e1707001e0fe8001e007800d6
:1043f800104078000004e000f8ff3a000080fa005e
:10440800000006000200fa00000f780004003700e0
:104418001e00780010407800480f07001e0fe800c3
:104428001e007800104078000004e000f8ff3a0011
:104438000080fa00000006000000fa00c04080007a
:10444800004078007f4060000080fb00e10f5000d2
:1044580010003c0011a8a9001181200091407800ab
:1044680000ceb30000c0600011e8b7002181200031
:104478009140780000cfb30000c0600012e8b70098
:10448800d70d0700eb0d07008a0d0700b70d0700d1
:1044980004003700d20d0700e60d0700850d070060
:1044a800b20d07000080fa00000006000000fa00c4
:1044b800889fbe008a9fbe008c1f7800a0408000a5
:1044c8004500de00f043b2000080fb0080004000a1
:1044d800a0b620000080400010007800304388001b
:1044e800a04080004b00de00004078000080fb0008
:1044f80080004000c0ba2000008040001000780012
:1045080040438800c0408000004078007f40600041
:104518000080fb0080004000a0bc2000008040001c
:10452800100078005043880016c8bf000080fb00c8
:10453800104388001c4380003fc8bf008085fb00f3
:1045480010c8bf000080fb004600de00614060002c
:104558000085fb00f9428000484380003743800013
:10456800201780004200de00614060000083fb00ed
:10457800b04080004e00de00614060008082fb0099
:10458800b04080004f00de00004078000082fb0051
:10459800c04080004500de007f4060008081fb0055
:1045a80016c8bf000081fb0051438000c040800056
:1045b8004d00de00004078000080fb008c1f780072
:1045c8008b1f78008a1f7800891f7800881f780061
:1045d800871f7800861f7800851f7800841f780061
:1045e800831f7800821f7800811f7800801f780061
:1045f80000832900801f7800c10d2000a0a02000a2
:10460800e6f30700fc875700a0a020007dff070005
:10461800a08d29006eff070000602a00e10020003d
:10462800e01707004f0678004f05be004f04be0094
:104638000080fa00000006000000fa00108f290030
:1046480063ff0700210480000080200000806000d4
:104658000000e000d0023200c502370030118000af
:10466800604288006142800060092000808f50000d
:1046780007003a0040c0b3003fe8b700d08f2900d8
:1046880053ff070000602a00e1002000c51707005b
:104698006142800070092000808f500007003a00b6
:1046a80090c0b3003fe8b7009090290048ff07008a
:1046b80000602a00e1002000ba170700614280006c
:1046c80080092000808f500016003a007091290060
:1046d8003fff07007042800000f0a7000000ea00da
:1046e8000000e9004f00de00704288007042800040
:1046f800e10f500006003a0040c0b3003fe8b700a1
:1047080000602a00e1002000a61707000500370016
:1047180090c0b3003fe8b70000602a00e100200025
:10472800a01707003fc8bf00e64f50000600320040
:104738003fc8bf00e84f5000030032003fc8bf0029
:10474800e54f500034023a0061428000f007200033
:10475800808f50001e003c001c88a800604280002a
:10476800cf80de0070f00700e2d825003301240076
:1047780073f1070002002000032924008bf00700d2
:1047880048f007000000780000438800604280007d
:10479800801f780000922900801f780060ae2000fa
:1047a8008bf30700e4875700a043880060ae200021
:1047b80007ff07001f28a80060428000004078001b
:1047c80016e8b7005000200050418800540d07003b
:1047d800604280006101b90070f62f00f1ff2f00e0
:1047e800020040008380480072012000030020007e
:1047f800820f5000838f5800f3013e0000600100d3
:104808002f003700370037005f0037006f00370090
:104818008000370091003700a3003700b40037004c
:10482800c6003700ee003700140137002c013700ae
:1048380044013700590137006e01370088013700fd
:10484800a2013700b2013700c4013700d601370092
:10485800da01370002003700dd0137000c003700ad
:10486800a0932900dafe070016c8bf000040e80040
:1048780016e8b70000e0230091042000491707005c
:104888005000200050418800250d0700d101370055
:1048980070942900cefe070016c8bf000040e9004a
:1048a80016e8b70000e02300910420003d17070038
:1048b8005000200050418800190d0700c50137003d
:1048c800e0c1b30036e8b70060952900c0fe0700d4
:1048d800500020005041880060c1b3003fe8b70095
:1048e800bc013700e0952900b9fe07005000200000
:1048f80050418800b04080004e00de0061406000fa
:104908000004a200614060000080fb0061006000bc
:104918004e00dd00b140800001e0a1000100700000
:10492800b0408800b04080004e00de00614060006a
:104938000080fb00610060004700dd002117800057
:104948000170a1000100700020178800b0408000ad
:104958004e00de00614060000080fb0061006000e6
:104968004700dd00114080000170a10001007000c7
:10497800104088000428ef00220b0700bc15070030
:104988007b150700930137001e48a8006e28ef002a
:10499800c1408000f0ff210000806000c040880016
:1049a800360b070000a0260081012000fd16070035
:1049b80050002000504188006096290084fe0700be
:1049c80030c3b3003fe8b700820137001e48a80093
:1049d8006e28ef00c1408000f0ff210000806000d9
:1049e80000d0a000c0408800240b070000a02600cb
:1049f80081012000eb16070050002000504188007c
:104a08001097290072fe070030c3b3003fe8b700d3
:104a1800700137001e48a8006e28ef00c1408000d2
:104a2800f0ff21000080600000e0a000c040880086
:104a3800120b070000a0260081012000d9160700ec
:104a48005000200050418800c097290060fe0700f0
:104a580030c3b3003fe8b7005e0137001e48a80026
:104a68006e28ef00c1408000f0ff210080806000c8
:104a78000000260001007000c0408800ff0a0700ff
:104a880000a0260081012000c61607005000200063
:104a980050418800709829004dfe070030c3b300cc
:104aa8003fe8b7004b0137001e48a8006e28ef000a
:104ab800c1408000f0ff21000080600000f0a000ed
:104ac800c0408800ed0a070000a0260081012000f0
:104ad800b416070050002000504188002099290092
:104ae8003bfe070030c3b3003fe8b7003901370089
:104af8001e48a8006e28ef00c1408000f0ff21008a
:104b08008080600000002a0001007000c04088001a
:104b1800da0a070000a0260081012000a11607007c
:104b28005000200050418800d099290028fe070035
:104b380030c3b3003fe8b70026013700a14080002a
:104b480090ff2f00008060000010a000a0408800a7
:104b5800c04080004d00de00004078008080fb00ef
:104b6800cd08dd00c3408000f2ff21000281610012
:104b780082807000c14088000040e9006740600002
:104b88000080fb004d00dd00c2408000f1ff2100e5
:104b98008100610001007000c0408800b1408000c1
:104ba800f03f2f0000806000b0408800030b070032
:104bb800370b0700b10a070000a02600810120007a
:104bc80078160700809a290001fe0700500020008f
:104bd8005041880030c3b3003fe8b700fd003700fc
:104be800b1408000f03f2f0000806000b040880096
:104bf800a140800090ff2f00008060000010a000fe
:104c0800a0408800c04080004d00de0000407800d1
:104c18008080fb00cd08dd00c3408000f2ff21004a
:104c28000281610082807000c14088000040e80075
:104c3800674060000080fb004d00dd00c24080003e
:104c4800f1ff21008100610001007000c040880070
:104c580000a026008101200052160700870a0700dd
:104c6800b09b2900dafd0700500020005041880061
:104c780030c3b3003fe8b700d60037001ec8a8000d
:104c8800a04080004b00de00004078000040e800b3
:104c98007f4060000080fb004b00dd00a2408000e8
:104ca800f17f20008100610001007000a0408800b1
:104cb800b1408000f0ff2c000080600000c0a00020
:104cc800b0408800c60b0700da0b0700009d2900da
:104cd800bffd07005000200050418800bd0037008c
:104ce8001ec8a800a04080004b00de0000407800ed
:104cf8000040e9007f4060000080fb004b00dd00c1
:104d0800a2408000f17f2000810061000100700056
:104d1800a0408800b1408000f0ff2c0000806000b7
:104d280000c0a000b0408800ad0b0700c10b070011
:104d3800209e2900a6fd0700500020005041880051
:104d4800a40037001ea8a800a04080004500de008f
:104d5800f043b2000040e800f043b2008080fb005e
:104d6800f0032000008060004500dd00a2408000c4
:104d7800f1812f008100610001007000a0408800cf
:104d88004c0b0700790b0700609f290090fd070076
:104d980050002000504188008e0037001ea8a8004f
:104da800a04080004500de00f043b2000040e9006a
:104db800f043b2008080fb00f00320000080600018
:104dc8004500dd00a2408000f1812f0081006100d4
:104dd80001007000a0408800360b0700630b070035
:104de80070a029007afd070050002000504188007b
:104df8007800370010002000e04288001c88a800d6
:104e0800c04080004500de007f4060000040e800b0
:104e18007f4060000080fb007f0060004500dd00ef
:104e2800c2408000f1c12f008100610001007000c4
:104e3800c040880000a0260081012000d915070085
:104e4800ea0b07005000200050418800a0a129006b
:104e58005ffd070040c4b3003fe8b7005d003700be
:104e680010002000d04288001c88a800c0408000a4
:104e78004500de007f4060000040e9007f406000a0
:104e88000080fb007f0060004500dd00c24080001c
:104e9800f1c12f008100610001007000c04088004e
:104ea80000a0260081012000be1507005000200048
:104eb80050418800cd0b0700b0a2290044fd07002f
:104ec80040c4b3003fe8b700420037001c88a80080
:104ed800c1408000f0c12f00008060000080a00069
:104ee800c040880000a0260081012000ad15070001
:104ef800be0b0700b0a3290035fd070050002000b5
:104f08005041880040c4b3003fe8b7003100370083
:104f1800d0a429002efd07001e88a800d0408000dc
:104f280000407800f043b2000040e800f043b200cf
:104f38008080fb00f003200000806000d2408000e9
:104f480001fc2f008100610001007000d040880042
:104f580050002000504188001e00370070a529002d
:104f68001bfd07001e88a800d04080000040780084
:104f7800f043b2000040e900f043b2008080fb003b
:104f8800f003200000806000d240800001fc2f0068
:104f98008100610001007000d040880050002000ae
:104fa800504188000b00370030a6290008fd070093
:104fb80050002000504188000600370010002000f3
:104fc800904288000300370000000000010037000d
:104fd8000000000016c8bf00ea4f500003003e0062
:104fe800a0c0b30016e8b7000b00370016c8bf0012
:104ff800e14f400003003a0010c0b30016e8b700c4
:105008000500370016c8bf000004e00002003d009c
:10501800f0c7b30016e8b700c140800000002e00ba
:105028008080600000002e00808f500006003a004b
:10503800c1408000f0ff21008080600000002a004d
:1050480001007000c0408800c04080004d00de00b4
:10505800004078000080fb00e50f50000400340099
:10506800c1408000f0ff210000806000c04088003f
:10507800a1408000007e200080806000007e20002b
:10508800808f500004003a00a1408000f0812f007a
:1050980000806000a0408800a1408000007e2000c1
:1050a8008080600000422000808f500005003a0098
:1050b800a1408000f0812f000080600000a0a000c7
:1050c800a0408800a140800000802f008080600000
:1050d80000002800808f500006003a00a1408000a0
:1050e800f07f2000808060000080270001007000b1
:1050f800a0408800a140800000802f0080806000d0
:1051080000802f00808f500004003a00a1408000ea
:10511800f07f200000806000a0408800c14080002f
:10512800003e200080806000003e2000808f5000fc
:1051380004003a00c1408000f0c12f0000806000e8
:10514800c0408800c04080004500de007f4060000d
:105158000080fb00f00f500005003400c1408000c3
:10516800f0c12f00008060000090a000c0408800bf
:1051780010118000610060000000e00037fd3a0077
:105188008560a90010118000620060000000e00046
:10519800010032002222a9000080fa000000060067
:1051a8000400fa000040eb00204798000040eb00a4
:1051b8003047980000402200410f2000f9140700f2
:1051c800c0a6290082fc070010aa290080fc07005d
:1051d80090ab29007efc070080af29007cfc07000b
:1051e80050b529007afc070030b9290078fc07007f
:1051f80020c0b3003fe8b7001c88a90003003700af
:105208000000000001003700000000003fc8bf0098
:105218000080fb006101b9000080eb008080eb009a
:105228000200400083804800420420000300200060
:10523800820f5000838f58003a063e00006001003c
:105248004400370046003700590037006b0037002c
:1052580068013700d901370034063700ed013700ff
:105268001005370092053700300637002f06370043
:10527800290637002d0637002c063700de033700d5
:105288002a06370029063700280637002706370080
:10529800260637001804370024063700230637008f
:1052a8004204370021063700200637001f06370062
:1052b8001e063700800337001c0637001b06370020
:1052c8001a0637001906370070033700170637002b
:1052d8001606370015063700140637001306370080
:1052e8001206370011063700100637000f06370080
:1052f800850437000d063700e00437000b06370039
:105308000a063700090637007302370054033700ce
:1053180006063700830237008a0237000306370083
:10532800020637007f03370022023700890537005d
:10533800fe053700fd053700fc053700ac053700d2
:10534800fa05370046043700870537004d04370053
:1053580096053700d0bc29001dfc07001806370049
:1053680060bd29001afc0700e442a8000308a80051
:105378000328a9000428ef00014080000000210054
:10538800008060000000e00002003a00207b20005e
:10539800b00c8800d5a2a900f51207001c88a90046
:1053a8001c68a90030c0b3003fe8b7000406370006
:1053b8005000200050418800e040800068006000f4
:1053c8000000e000090032001c88a900e0bf2900a5
:1053d800fffb07000188a900e512070010c8a90013
:1053e8002313070040c0b3003fe8b7000090200037
:1053f800d10320006b140700f1053700c0c0290055
:10540800f3fb070050c12900f1fb0700d5a2a90052
:10541800e442a9008f120700001027002100200095
:105428006014070095080700007d2000b00c880074
:1054380010002000004288000d130700c0408000c3
